:020000040800F2
:100000001001002099020008CF020008D102000868
:10001000D3020008D5020008D70200080000000043
:10002000000000000000000000000000D9020008ED
:10003000DB02000800000000DD0200085D08000887
:10004000E1020008E3020008E5020008E7020008F8
:10005000E9020008EB020008ED020008EF020008C8
:10006000F1020008F3020008F5020008F702000898
:10007000F9020008FB020008FD020008FF02000868
:100080000103000803030008050300080703000834
:10009000090300080B0300080D0300080F03000804
:1000A00011030008130300081503000817030008D4
:1000B000190300081B0300081D0300081F030008A4
:1000C0002103000823030008250300082703000874
:1000D000290300082B0300082D0300082F03000844
:1000E0003103000833030008350300083703000814
:1000F000390300083B0300083D0300083F030008E4
:1001000041030008430300084503000847030008B3
:10011000490300084B0300084D0300084F03000883
:100120005103000853030008550300085703000853
:10013000590300085B0300085D0300085F03000823
:1001400061030008630300086503000867030008F3
:10015000690300086B0300086D0300086F030008C3
:100160007103000873030008750300087703000893
:10017000790300087B0300087D0300087F03000863
:0801800081030008830300085D
:100188002A49072291438D4629482A492A4A00F0DC
:1001980039F82A482A492B4A00F034F82A482B49CA
:1001A8002B4A00F02FF82B482B492C4A00F02AF84C
:1001B8002B482C492C4A00F025F82C482C492D4A6C
:1001C80000F020F82C482D49002200F026F82C4891
:1001D8002C49091A082903DB002202600430016057
:1001E8001D481E49884205D00268043003B4904770
:1001F80003BCF7E700208646EC4600200021224A8F
:100208009047FEE7884207D0521A05D0037801309C
:100218000B700131013AF9D17047884202D002705F
:100228000130FAE7704719487047000010010020B4
:10023800B815000800000020000000209003000806
:100248009003000898150008B81500080000002061
:100258000000002098150008981500089815000857
:1002680098150008981500089815000898150008B2
:1002780098150008B815000800000020100000209C
:10028800100000209000002051040008FFFFFFFF2D
:100298003A48854600F070F94EF68850CEF20000D4
:1002A800016851F47001016000BF00BF00BFF1EEAA
:1002B800100A50F04070E1EE100A314831490160EF
:1002C800FFF75EBF7047FEE7FEE7FEE7FEE7FEE7E3
:1002D800FEE7FEE7FEE7FEE7FEE7FEE7FEE7FEE7EE
:1002E800FEE7FEE7FEE7FEE7FEE7FEE7FEE7FEE7DE
:1002F800FEE7FEE7FEE7FEE7FEE7FEE7FEE7FEE7CE
:10030800FEE7FEE7FEE7FEE7FEE7FEE7FEE7FEE7BD
:10031800FEE7FEE7FEE7FEE7FEE7FEE7FEE7FEE7AD
:10032800FEE7FEE7FEE7FEE7FEE7FEE7FEE7FEE79D
:10033800FEE7FEE7FEE7FEE7FEE7FEE7FEE7FEE78D
:10034800FEE7FEE7FEE7FEE7FEE7FEE7FEE7FEE77D
:10035800FEE7FEE7FEE7FEE7FEE7FEE7FEE7FEE76D
:10036800FEE7FEE7FEE7FEE7FEE7FEE7FEE7FEE75D
:10037800FEE7FEE7FEE7FEE7FEE7FEE700000220F5
:0803880008ED00E00000000890
:1003900080B483B000AF03463960FB7197F9073032
:1003A000002B10DA4FF46D43CEF20003FA7902F01D
:1003B0000F02A2F104013A68D2B24FEA0212D2B29D
:1003C0005B181A760DE04FF46143CEF2000397F903
:1003D00007103A68D2B24FEA0212D2B25B1883F821
:1003E000002307F10C07BD4680BC704780B582B082
:1003F00000AF78607A686FF07F439A4202D94FF07D
:1004000001031FE04EF21003CEF200037A6822F0DF
:100410007F4202F1FF325A604FF0FF304FF00F0180
:10042000FFF7B6FF4EF21003CEF200034FF00002CA
:100430009A604EF21003CEF200034FF007021A60EA
:100440004FF00003184607F10807BD4680BD00BF06
:1004500080B500AF49F24000C0F20200FFF7C6FFCE
:1004600000F022F84FF44060C4F202004FF00F0198
:100470004FF0010200F054F84FF0FA004FF47A7197
:1004800000F0FEF94FF44060C4F202004FF00F019B
:100490004FF0000200F044F84FF0FA004FF47A7188
:1004A00000F0EEF9DEE700BF80B400AF4FF4605318
:1004B000C4F202034FF0FF021A634FF44063C4F228
:1004C00002034FF44062C4F20202126842F080421A
:1004D0001A604FF44063C4F202035B684FF4406358
:1004E000C4F202034FF000025A604FF44063C4F2BA
:1004F00002034FF44062C4F20202926842F00042EA
:100500009A604FF44063C4F202034FF44062C4F2B5
:100510000202D26802F04042DA60BD4680BC7047F9
:1005200080B483B000AF786013460A46FA70BB709F
:10053000BB78002B0FD07B681B8B9BB29AB2FB78E9
:100540004FF0010101FA03F39BB213439BB29AB23D
:100550007B681A830EE07B685B8B9BB29AB2FB7858
:100560004FF0010101FA03F39BB213439BB29AB21D
:100570007B685A8307F10C07BD4680BC704700BFFB
:1005800080B500AF4FF46053C4F202034FF46052E1
:10059000C4F20202126842F001021A604FF4605382
:1005A000C4F202034FF000029A604FF46053C4F2A9
:1005B00002034FF46052C4F20202126822F0847205
:1005C00022F480321A604FF46053C4F2020343F203
:1005D0001002C2F200425A604FF46053C4F20203A8
:1005E0004FF46052C4F20202126822F480221A60B0
:1005F0004FF46053C4F202034FF00002DA6000F0DF
:1006000009F84FF46D43CEF200034FF000629A6098
:1006100080BD00BF80B483B000AF4FF000037B60AB
:100620004FF000033B604FF46053C4F202034FF4F9
:100630006052C4F20202126842F480321A604FF42F
:100640006053C4F202031B6803F400333B607B6811
:1006500003F101037B603B68002B03D17B68B3F59A
:10066000A06FECD14FF46053C4F202031B6803F493
:100670000033002B03D04FF001033B6002E04FF04A
:1006800000033B603B68012B40F082804FF46053D5
:10069000C4F202034FF46052C4F20202126C42F040
:1006A00080521A644FF4E043C4F200034FF4E04276
:1006B000C4F20002126842F480421A604FF46053A0
:1006C000C4F202034FF46052C4F2020292689A60CC
:1006D0004FF46053C4F202034FF46052C4F20202BA
:1006E000926842F400429A604FF46053C4F20203ED
:1006F0004FF46052C4F20202926842F4A0529A602F
:100700004FF46053C4F2020345F21942C0F2407242
:100710005A604FF46053C4F202034FF46052C4F2C3
:100720000202126842F080721A6000BF4FF46053F8
:10073000C4F202031B6803F00073002BF6D04FF4E1
:100740007053C4F2020340F205621A604FF4605322
:10075000C4F202034FF46052C4F20202926822F023
:1007600003029A604FF46053C4F202034FF46052E4
:10077000C4F20202926842F002029A6000BF4FF493
:100780006053C4F202039B6803F00C03082BF6D1FC
:1007900007F10C07BD4680BC704700BF80B483B032
:1007A00000AF03463960FB7197F90730002B10DA70
:1007B0004FF46D43CEF20003FA7902F00F02A2F17A
:1007C00004013A68D2B24FEA0212D2B25B181A762A
:1007D0000DE04FF46143CEF2000397F907103A6839
:1007E000D2B24FEA0212D2B25B1883F8002307F1AB
:1007F0000C07BD4680BC704780B582B000AF786002
:100800007A686FF07F439A4202D94FF001031FE0EC
:100810004EF21003CEF200037A6822F07F4202F11A
:10082000FF325A604FF0FF304FF00F01FFF7B6FF75
:100830004EF21003CEF200034FF000029A604EF227
:100840001003CEF200034FF007021A604FF00003CE
:10085000184607F10807BD4680BD00BF80B400AF51
:1008600040F20003C2F200031B6803F1010240F2F0
:100870000003C2F200031A60BD4680BC704700BF8F
:1008800080B582B000AF786039604FF4F443C0F6B1
:1008900003233A68B3FBF2F31846FFF7ADFF00BF3E
:1008A00040F20003C2F200031A687B689A42F7D351
:1008B00040F20003C2F200034FF000021A6007F199
:1008C0000807BD4680BD00BF2DE9F04F89B007463F
:1008D0000C4603924FF00003036041F2985BC0F6B0
:1008E000000B41F2A853C0F600030293C2E204F1E8
:1008F0000104252903D123464FF0000603E03846C2
:1009000000F07AFDB6E2194613F8010B1C46A0F17F
:100910002002102A1CD8DFE802F0091B1B0C1B1B4D
:100920001B0F1B1B1B121B151B1B180046F0400640
:10093000E9E746F08006E6E746F40046E3E746F0DE
:100940002006E0E746F01006DDE746F40076DAE739
:100950002A2807D0A0F13002D2B2092A13D94FF0C9
:10096000000A20E0039B03F104000390D3F800A0E9
:10097000BAF1000FBCBFCAF1000A46F01006487871
:1009800001F102040FE04FF0000A0AEB8A0AA0F11D
:10099000300000EB4A0A13F8010B1C46A0F13002AC
:1009A000D2B2092AF1D92AEAEA7A2E282DD1207862
:1009B0002A2809D004F10104A0F13003DBB2092B8D
:1009C0000CD94FF000081DE0039B03F104020392D1
:1009D000D3F80080607804F1020410E023464FF061
:1009E000000808EB8808A0F1300000EB480813F875
:1009F000010B1C46A0F13002D2B2092AF1D9B8F19C
:100A0000000F04DB46F4807601E04FF00008682810
:100A10000CD12078682805D146F00806607804F1EA
:100A2000020403E004F1010446F0040678287AD8B1
:100A3000DFE810F02E027900790079007900790062
:100A400079007900790079007900790079007900DE
:100A500079007900790079007900790079007900CE
:100A600079007900790079007900790079007900BE
:100A700079007900790079007900790079008A009D
:100A8000790079007900790079007900790079009E
:100A9000790079007900790079007900790079008E
:100AA000790079007900790079007900790079007E
:100AB000790079007900790079007900790079006E
:100AC000790079007900790079007900790079005E
:100AD000790079007900790079007900790079004E
:100AE00079007900EB0079007900790079007900CC
:100AF0007900790079007900790090001701790078
:100B0000790079007900170179007900790079007E
:100B1000AB000001D80079007900B70079000F011F
:100B200079007900ED0040F20403C2F200031D6871
:100B3000002D00F09F81CDF8008003AB0193394672
:100B400032465346A84795E138464FF0250100F05C
:100B500053FC8FE1039B03F1040203921D780AF119
:100B6000FF3A304651463A4600F074FC3846294672
:100B700000F042FC16F0100F00F07C814FF02000D6
:100B800051463A4600F054FC74E116F0080F039BFE
:100B900003F1040203921B683A6814BF1A701A60CA
:100BA00068E1039B03F104020392D3F800904846E6
:100BB00000F0A0FC054616F4807F02D04545A8BF92
:100BC0004546C5EB0A0A304651463A4600F042FC1B
:100BD000002DCFD019F8011B384600F00DFC013D67
:100BE000F8D1C7E7039B03F1040203921B6806F0E8
:100BF0008009B9F1000F14BF4FF023094FF000092D
:100C000046F480764FF008086AE046F4005616F085
:100C1000800F07D043F2780343F25809782808BFC1
:100C2000994601E04FF0000916F4807F20D026F4A9
:100C300000761DE006F08009B9F1000F14BF4FF0F7
:100C400030094FF0000916F4807F11D026F40076A9
:100C50000EE016F4807F09D026F400764FF00009EC
:100C600006E046F480464FF0000901E04FF000092D
:100C700016F4804F1ED0039B03F1040203921B68FD
:100C800016F0040F01D01BB203E016F0080F18BFD6
:100C9000DBB2002B04DAC3F100034FF02D091AE098
:100CA00016F0200F15D106F04002002A18BF4FF0B1
:100CB000200910E0039B03F1040203921B6816F065
:100CC000040F01D09BB206E016F0080F03D0DBB290
:100CD00001E04FF02B0916F4807F04D026F4007653
:100CE00016F4807F01D14FF00108A0F158002028B0
:100CF0006FD8DFE800F0196E6E6E6E6E6E6E6E6EFF
:100D00006E6E156E6E6E6E156E6E6E6E6E11196E67
:100D10006E6E6E156E6E19000BBB4FF000055DE038
:100D200053BB4FF0000559E0002B55D04FF00005A4
:100D300006F40052DDF808E032B103F00F011EF8AE
:100D4000010005A9685405E003F00F011BF801003C
:100D500005A9685405F101051B09EDD13EE04FF0EE
:100D6000000503F0070101F1300105AAA95405F1BE
:100D70000105DB08F5D131E04FF0000506F4004C29
:100D80004CF6CD4ECCF6CC4E6246A44614465CB131
:100D900005F00302032A07D108A842194FF02C01DD
:100DA00002F80C1C05F1010508AA5119AEFB03025B
:100DB0004FEAD20202EB8200A3EB400303F13003BF
:100DC00001F80C3C05F101051346002ADFD1644609
:100DD00004E04FF0000501E04FF00005C5EB080806
:100DE00028EAE878C8EB0A0AC5EB0A0AB9F1FF0F4E
:100DF00088BF0AF1FF3AB9F1000F01D00AF1FF3ABA
:100E000016F4007F06D1304651463A4600F022FBE8
:100E10004FF0000AB9F1FF0F04D9C9F30721384692
:100E200000F0EAFAB9F1000F04D05FFA89F1384610
:100E300000F0E2FA304651463A4600F00BFB4FF024
:100E4000300041463A4600F0F3FA012D09D40DF185
:100E50001408454415F8011D384600F0CDFA454503
:100E6000F8D116F0100F05D04FF0200051463A4649
:100E700000F0DEFA217800297FF439ADBB682BB190
:100E80003A6879688A423CBF00219954386801E089
:100E90004FF0FF3009B0BDE8F08F00BF10B5044639
:100EA0000B783BB1B0F1FF3F06D04B6803F1FF3345
:100EB0004B6001E08B689847204610BD2DE9F84F44
:100EC00082468B46904699460A9F4FF0FF3500E0D8
:100ED000354605F10106504600F07CFA044600F064
:100EE000FDFA0028F4D1B4F1FF3F00F0848028F42B
:100EF000C068002F3DDD18F0800F0FD02B2C03D0E1
:100F00002D2C09D148F4806805F10206504600F006
:100F100061FA044607F1FF37002F2ADD302C28D173
:100F200048F4007807F1FF3706F10105504600F05C
:100F300051FA0446002F16DD782801D0582812D126
:100F4000B9F1000F02D0B9F1100F5CD128F400788C
:100F500007F1FF3706F10205504600F03BFA044660
:100F60004FF010094FE0B9F1000F08BF4FF008092A
:100F700049E0B9F1000F08BF4FF00A09002F10DC5B
:100F80004FF0000515E048F4007807F1FF3709FB42
:100F9000050506F10106504600F01CFA044617B993
:100FA00007E04FF000052046494600F079FA002896
:100FB000E9DA20465146FFF771FF18F4007F1DD093
:100FC00018F0010F1CD1DBF8003003F10402CBF85C
:100FD00000201B6808F49062B2F5906F08BF6D4264
:100FE00018F0100F01D01D700AE018F0080F14BFA0
:100FF0001D801D6004E04FF0FF3601E06FF0010638
:101000003046BDE8F88F2E46B8E700BF2DE9F04F17
:1010100087B00290894605924FF0000BCDF80CB0D6
:101020004CF6CC4AC0F6CC4A4C4614F8016B002E64
:1010300000F0CB81252E35D0304600F04FFA08B9AC
:1010400018E02C4604F10105207800F047FA00284A
:10105000F7D101E00BF1010B029800F0BBF9054656
:1010600000F03CFA0028F5D128460299FFF716FF58
:10107000A146D9E7029800F0ADF90546B04203D188
:101080000BF1010BA146CFE70299FFF707FFB5F17E
:10109000FF3F40F09A81039A002A08BF4FF0FF32C9
:1010A000039292E199F801302A2B06BF09F102045C
:1010B0004FF001084FF000084FF000050CE05545D7
:1010C00000F3838105EB8505A6F1300616EB450597
:1010D00000F17B8148F02008274604F101043E78A6
:1010E000A146304600F0D4F90028E8D108F02002EB
:1010F000002A08BF6FF000454C2E05D17E7807F11D
:10110000020948F044080EE0682E0CD17E78682E63
:1011100005D148F01008BE7807F1030903E007F194
:10112000020948F00808A6F12506532E00F24D8169
:10113000DFE816F054004B014B014B014B014B0112
:101140004B014B014B014B014B014B014B014B013F
:101150004B014B014B014B014B014B014B014B012F
:101160004B014B014B014B014B014B014B014B011F
:101170004B014B014B014B014B014B014B014B010F
:101180004B014B014B014B014B014B014B014B01FF
:101190004B014B014B014B014B012C014B014B010E
:1011A0004B014B014B014B014B014B014B014B01DF
:1011B0006B009C004B014B014B014B01A7004B0105
:1011C0004B014B014B01B200C900D4004B014B0154
:1011D000DF004B0121014B014B012C01029800F073
:1011E000F9F80446252802D10BF1010B1CE70299FE
:1011F000FFF754FEB4F1FF3F40F0E780039B002B64
:1012000008BF4FF0FF330393DFE008F02003002B0B
:1012100008BF012518F0010405D1059B03F1040264
:1012200005921E6801E04FF00006002D00F0CD8011
:10123000002D13DD029800F0CDF8B0F1FF3F06D18C
:10124000039B002B08BF4FF0FF330393BDE00CB9A5
:1012500006F8010B0BF1010B013DEBD1002C7FF4E3
:10126000E3AE039B03F101030393DDE648F0800244
:101270000095029805A94FF00A03FFF71FFE0446E8
:101280008EE048F080020095029805A94FF0000317
:10129000FFF714FE044683E018F0010F7FF4C4AE9C
:1012A000059B03F1040205921B6818F0100F02D091
:1012B00083F800B0B8E618F0080F14BFA3F800B028
:1012C000C3F800B0B0E648F080020095029805A986
:1012D0004FF00803FFF7F2FD044661E028F01E021C
:1012E0000095029805A94FF01003FFF7E7FD0446AB
:1012F00056E04FF0FF3404F10104029800F06AF860
:10130000064600F0EBF80028F5D1B6F1FF3F2FD0EC
:1013100018F0010706D1059B03F1040205921B6832
:10132000049302E04FF000020492002D11DC15E05E
:1013300005F1FF351FB9049B03F8016B049304F119
:101340000104029800F046F806463DB1B0F1FF3FB7
:1013500004D0304600F0C2F80028E9D030460299A7
:10136000FFF79CFDE7B94FF00002049B1A7017E0ED
:101370004FF0FF3414E048F080020095029805A970
:101380004FF00A03FFF79AFD044609E048F0800297
:101390000095029805A94FF01003FFF78FFD044652
:1013A000002C09DAB4F1FF3F0FD1039A002A08BFDD
:1013B0004FF0FF32039208E018F0010F03D1039AB7
:1013C00002F101020392A3442EE6039807B0BDE8A0
:1013D000F08F00BF08B50346027832B1426810783A
:1013E00030B102F101025A6008BD4368984708BD58
:1013F0004FF0FF3008BD00BF38B50446806848B1E3
:101400002368626803F10105954208BF00219342F9
:1014100038BFC154E36833B120686268904202D299
:10142000084621469847236803F10103236038BD2D
:10143000F8B5154601290BD40E464FF00004C7B28B
:1014400028463946FFF7D8FF04F10104B442F7D12A
:10145000F8BD00BF08B510F0100F07D100F4007000
:1014600000280CBF20203020FFF7E2FF08BD00BF9E
:10147000A0F1410019288CBF00200120704700BF57
:10148000A0F1610019288CBF00200120704700BF27
:10149000A0F1300009288CBF00200120704700BF58
:1014A00038B504460D46FFF7F3FF10B1A4F1300044
:1014B0000FE02046FFF7E4FF10B1A4F1570008E069
:1014C0002046FFF7D5FF10B1A4F1370001E04FF03F
:1014D000FF30A842A8BF4FF0FF3038BDA0F109038C
:1014E000042B04D9202814BF0020012070474FF09E
:1014F0000100704700F1010110F0030F11D010F846
:10150000012B002A23D010F0030F0AD010F8012B72
:10151000002A1CD010F0030F03D010F8012B002A72
:1015200015D02DE970004FF001324FF0803350F8A4
:10153000044BA4EB020525EA04051D4000D1F6E7A3
:10154000A0F1040070BC10F8012B002AFBD1A0EB25
:101550000100704738B504460D4600F019F840F216
:101560000803C2F200031D6044F0800440F20C0343
:10157000C2F200031C601A461368002BFCD100F075
:1015800009F840F20803C2F20003186838BD00BF32
:08159000704700BF704700BF67
:1015980030313233343536373839616263646566E1
:1015A8003031323334353637383941424344454691
:040000050800029954
:00000001FF
